S01000004156525F4E4F44452E73726563A6
S11300000C942A000C943F000C943F000C943F0085
S11300100C943F000C943F000C943F000C943F0060
S11300200C943F000C943F000C943F000C943F0050
S11300300C943F000C943F000C943F000C943F0040
S11300400C943F000C943F000C943F000C943F0030
S11300500C943F0011241FBECFE5D8E0DEBFCDBF16
S113006010E0A0E6B0E0E4E9F5E002C005900D92EE
S1130070A03AB107D9F70E946C020C94C8020C9400
S11300800000CF93DF9300D000D0CDB7DEB70E943D
S1130090C60119821A8282E08B831C82CE010196EA
S11300A00E94710261E081E00E9481000F900F9034
S11300B00F900F90DF91CF91089581E00E94C302C9
S11300C0843069F018F4833031F00895853059F0A4
S11300D0863069F008958BE10E940301089582E15E
S11300E00E940301089587E10E940301089580E0BE
S11300F00E94030181E00E94030182E00E94030147
S11301000895982F9695969596958770913021F13C
S113011030F09230F1F1933009F458C00895613011
S113012069F44BB321E030E0B90102C0660F771FD8
S11301308A95E2F7CB01842B8BBB08954BB321E066
S113014030E0B90102C0660F771F8A95E2F7CB0150
S1130150809584238BBB0895613069F448B321E012
S113016030E0B90102C0660F771F8A95E2F7CB0130
S1130170842B88BB089548B321E030E0B90102C064
S1130180660F771F8A95E2F7CB018095842388BB9D
S11301900895613069F445B321E030E0B90102C04B
S11301A0660F771F8A95E2F7CB01842B85BB0895F0
S11301B045B321E030E0B90102C0660F771F8A958C
S11301C0E2F7CB018095842385BB0895613069F4FF
S11301D042B321E030E0B90102C0660F771F8A956F
S11301E0E2F7CB01842B82BB089542B321E030E0D7
S11301F0B90102C0660F771F8A95E2F7CB0180959B
S1130200842382BB0895982F96959695969587702A
S1130210913099F028F09230E9F0933041F108954B
S11302204BB321E030E0B90102C0660F771F8A9515
S1130230E2F7CB0184278BBB089548B321E030E07B
S1130240B90102C0660F771F8A95E2F7CB018427B4
S113025088BB089545B321E030E0B90102C0660FC0
S1130260771F8A95E2F7CB01842785BB089542B3B3
S113027021E030E0B90102C0660F771F8A95E2F7EA
S1130280CB01842782BB0895982F969596959695D1
S11302908770913021F130F09230F1F1933009F40C
S11302A058C00895613069F44AB321E030E0B901DF
S11302B002C0660F771F8A95E2F7CB01842B8ABBB5
S11302C008954AB321E030E0B90102C0660F771FF8
S11302D08A95E2F7CB01809584238ABB0895613027
S11302E069F447B321E030E0B90102C0660F771F1B
S11302F08A95E2F7CB01842B87BB089547B321E0AD
S113030030E0B90102C0660F771F8A95E2F7CB018E
S11303108095842387BB0895613069F444B321E058
S113032030E0B90102C0660F771F8A95E2F7CB016E
S1130330842B84BB089544B321E030E0B90102C0AA
S1130340660F771F8A95E2F7CB018095842384BBDF
S11303500895613069F441B321E030E0B90102C08D
S1130360660F771F8A95E2F7CB01842B81BB089532
S113037041B321E030E0B90102C0660F771F8A95CE
S1130380E2F7CB018095842381BB089580E0A0C06F
S1130390982F969596959695282F2770913061F110
S11303A038F0923009F44CC0933009F46DC08FC01A
S11303B0E82FF0E0EE0FFF1FE05AFF4F90819130DD
S11303C069F49AB341E050E0BA0102C0660F771FA6
S11303D02A95E2F79B01292B2ABB79C09AB341E005
S11303E050E0BA0102C0660F771F2A95E2F79B011D
S11303F0209529232ABB6BC0E82FF0E0EE0FFF1FE6
S1130400E05AFF4F9081913069F497B341E050E096
S1130410BA0102C0660F771F2A95E2F79B01292BC8
S113042027BB55C097B341E050E0BA0102C0660F44
S1130430771F2A95E2F79B012095292327BB47C004
S1130440E82FF0E0EE0FFF1FE05AFF4F908191304C
S113045069F494B341E050E0BA0102C0660F771F1B
S11304602A95E2F79B01292B24BB31C094B341E0C8
S113047050E0BA0102C0660F771F2A95E2F79B018C
S11304802095292324BB23C0E82FF0E0EE0FFF1FA3
S1130490E05AFF4F9081913069F491B341E050E00C
S11304A0BA0102C0660F771F2A95E2F79B01292B38
S11304B021BB0DC091B341E050E0BA0102C0660F08
S11304C0771F2A95E2F79B012095292321BB8F5F93
S11304D0803208F45DCF08950E9441000E945D00BF
S11304E0FDCFCF93DF93EC0188818823C9F081305D
S11304F069F561E08CE00E94440161E08DE00E94B6
S1130500440160E08EE00E94440161E08FE00E94BB
S113051044018DB180618DB98DB180648DB916C0EF
S113052060E08CE00E94440160E08DE00E944401A0
S113053061E08EE00E94440160E08FE00E9444018B
S11305408DB18F7E8DB98DB180648DB92DB19981B6
S113055030E2939FC0011124822B8DB98B818130AD
S113056041F48EB181608EB99DB18A81892B8DB998
S113057007C08EB18E7F8EB99DB18A81892B8DB9CA
S1130580DF91CF9108958FB9779BFECF8FB10895F6
S1070590F894FFCF09
S11305940101010101010101010101010101010143
S11305A40101010101010101010101010101010133
S11305B40101010101010101010101010101010123
S11305C40101010101010101010101010101010113
S9030000FC
